{
  "abi": [
    {
      "constant": true,
      "inputs": [],
      "name": "totalRefund",
      "outputs": [
        {
          "name": "",
          "type": "uint256"
        }
      ],
      "payable": false,
      "stateMutability": "view",
      "type": "function"
    },
    {
      "constant": true,
      "inputs": [],
      "name": "differenceOfFundAndRefund",
      "outputs": [
        {
          "name": "",
          "type": "uint256"
        }
      ],
      "payable": false,
      "stateMutability": "view",
      "type": "function"
    },
    {
      "constant": true,
      "inputs": [],
      "name": "totalFund",
      "outputs": [
        {
          "name": "",
          "type": "uint256"
        }
      ],
      "payable": false,
      "stateMutability": "view",
      "type": "function"
    },
    {
      "constant": true,
      "inputs": [],
      "name": "totalPayout",
      "outputs": [
        {
          "name": "",
          "type": "uint256"
        }
      ],
      "payable": false,
      "stateMutability": "view",
      "type": "function"
    },
    {
      "constant": true,
      "inputs": [
        {
          "name": "",
          "type": "address"
        }
      ],
      "name": "grantees",
      "outputs": [
        {
          "name": "targetFunding",
          "type": "uint256"
        },
        {
          "name": "payout",
          "type": "uint256"
        }
      ],
      "payable": false,
      "stateMutability": "view",
      "type": "function"
    },
    {
      "constant": true,
      "inputs": [
        {
          "components": [
            {
              "name": "fund",
              "type": "uint256"
            },
            {
              "name": "refund",
              "type": "uint256"
            }
          ],
          "name": "_donor",
          "type": "tuple"
        }
      ],
      "name": "actualFundingByDonor",
      "outputs": [
        {
          "name": "",
          "type": "uint256"
        }
      ],
      "payable": false,
      "stateMutability": "pure",
      "type": "function"
    },
    {
      "constant": true,
      "inputs": [
        {
          "name": "",
          "type": "address"
        }
      ],
      "name": "donors",
      "outputs": [
        {
          "name": "fund",
          "type": "uint256"
        },
        {
          "name": "refund",
          "type": "uint256"
        }
      ],
      "payable": false,
      "stateMutability": "view",
      "type": "function"
    },
    {
      "constant": true,
      "inputs": [],
      "name": "availableFund",
      "outputs": [
        {
          "name": "",
          "type": "uint256"
        }
      ],
      "payable": false,
      "stateMutability": "view",
      "type": "function"
    },
    {
      "inputs": [
        {
          "name": "_granteesAddress",
          "type": "address[]"
        },
        {
          "name": "_targetFundingForGrantee",
          "type": "uint256[]"
        },
        {
          "name": "_totalFund",
          "type": "uint256"
        }
      ],
      "payable": false,
      "stateMutability": "nonpayable",
      "type": "constructor"
    }
  ],
  "evm": {
    "bytecode": {
      "linkReferences": {},
      "object": "60806040523480156200001157600080fd5b5060405162000ab638038062000ab6833981810160405262000037919081019062000276565b600080600090505b8451811015620000d75760008582815181106200005857fe5b6020026020010151905060008583815181106200007157fe5b60200260200101519050808401935080600360008473ffffffffffffffffffffffffffffffffffffffff1673ffffffffffffffffffffffffffffffffffffffff16815260200190815260200160002060000181905550505080806001019150506200003f565b508181146200011d576040517f08c379a000000000000000000000000000000000000000000000000000000000815260040162000114906200038c565b60405180910390fd5b8160008190555050505050620004b1565b6000815190506200013f816200047d565b92915050565b600082601f8301126200015757600080fd5b81516200016e6200016882620003dc565b620003ae565b915081818352602084019350602081019050838560208402820111156200019457600080fd5b60005b83811015620001c85781620001ad88826200012e565b84526020840193506020830192505060018101905062000197565b5050505092915050565b600082601f830112620001e457600080fd5b8151620001fb620001f58262000405565b620003ae565b915081818352602084019350602081019050838560208402820111156200022157600080fd5b60005b838110156200025557816200023a88826200025f565b84526020840193506020830192505060018101905062000224565b5050505092915050565b600081519050620002708162000497565b92915050565b6000806000606084860312156200028c57600080fd5b600084015167ffffffffffffffff811115620002a757600080fd5b620002b58682870162000145565b935050602084015167ffffffffffffffff811115620002d357600080fd5b620002e186828701620001d2565b9250506040620002f4868287016200025f565b9150509250925092565b60006200030d604c836200042e565b91507f636f6e7374727563746f723a3a46756e64696e67204572726f722c20746f746160008301527f6c2066756e64696e67206e6f7420657175616c20746f2073756d206f6620746160208301527f726765742066756e64696e6700000000000000000000000000000000000000006040830152606082019050919050565b60006020820190508181036000830152620003a781620002fe565b9050919050565b6000604051905081810181811067ffffffffffffffff82111715620003d257600080fd5b8060405250919050565b600067ffffffffffffffff821115620003f457600080fd5b602082029050602081019050919050565b600067ffffffffffffffff8211156200041d57600080fd5b602082029050602081019050919050565b600082825260208201905092915050565b60006200044c8262000453565b9050919050565b600073ffffffffffffffffffffffffffffffffffffffff82169050919050565b6000819050919050565b62000488816200043f565b81146200049457600080fd5b50565b620004a28162000473565b8114620004ae57600080fd5b50565b6105f580620004c16000396000f3fe608060405234801561001057600080fd5b50600436106100a5576000357c010000000000000000000000000000000000000000000000000000000090048063589596b711610078578063589596b714610122578063c267771c14610153578063ca0cdea814610183578063d0cb3cd1146101b4576100a5565b806301541fe3146100aa5780630504ca05146100c8578063100aca47146100e6578063454f7b8f14610104575b600080fd5b6100b26101d2565b6040516100bf9190610477565b60405180910390f35b6100d06101d8565b6040516100dd9190610477565b60405180910390f35b6100ee6101f6565b6040516100fb9190610477565b60405180910390f35b61010c6101fc565b6040516101199190610477565b60405180910390f35b61013c600480360361013791908101906103bb565b610202565b60405161014a929190610492565b60405180910390f35b61016d600480360361016891908101906103e4565b610226565b60405161017a9190610477565b60405180910390f35b61019d600480360361019891908101906103bb565b61024a565b6040516101ab929190610492565b60405180910390f35b6101bc61026e565b6040516101c99190610477565b60405180910390f35b60015481565b60006101f16001546000546102a090919063ffffffff16565b905090565b60005481565b60025481565b60036020528060005260406000206000915090508060000154908060010154905082565b6000610243826020015183600001516102a090919063ffffffff16565b9050919050565b60046020528060005260406000206000915090508060000154908060010154905082565b600061029b60025461028d6001546000546102a090919063ffffffff16565b6102a090919063ffffffff16565b905090565b60006102e283836040518060400160405280601e81526020017f536166654d6174683a207375627472616374696f6e206f766572666c6f7700008152506102ea565b905092915050565b6000838311158290610332576040517f08c379a00000000000000000000000000000000000000000000000000000000081526004016103299190610455565b60405180910390fd5b5060008385039050809150509392505050565b60008135905061035481610584565b92915050565b60006040828403121561036c57600080fd5b61037660406104bb565b90506000610386848285016103a6565b600083015250602061039a848285016103a6565b60208301525092915050565b6000813590506103b58161059b565b92915050565b6000602082840312156103cd57600080fd5b60006103db84828501610345565b91505092915050565b6000604082840312156103f657600080fd5b60006104048482850161035a565b91505092915050565b6000610418826104e8565b61042281856104f3565b9350610432818560208601610540565b61043b81610573565b840191505092915050565b61044f81610536565b82525050565b6000602082019050818103600083015261046f818461040d565b905092915050565b600060208201905061048c6000830184610446565b92915050565b60006040820190506104a76000830185610446565b6104b46020830184610446565b9392505050565b6000604051905081810181811067ffffffffffffffff821117156104de57600080fd5b8060405250919050565b600081519050919050565b600082825260208201905092915050565b600061050f82610516565b9050919050565b600073ffffffffffffffffffffffffffffffffffffffff82169050919050565b6000819050919050565b60005b8381101561055e578082015181840152602081019050610543565b8381111561056d576000848401525b50505050565b6000601f19601f8301169050919050565b61058d81610504565b811461059857600080fd5b50565b6105a481610536565b81146105af57600080fd5b5056fea365627a7a72305820a4470f99dc27547e449eb4cbf9ccda5a5f458dd55565a765a8a91bc3149f70d36c6578706572696d656e74616cf564736f6c634300050a0040",
      "opcodes": "PUSH1 0x80 PUSH1 0x40 MSTORE CALLVALUE DUP1 ISZERO PUSH3 0x11 JUMPI PUSH1 0x0 DUP1 REVERT JUMPDEST POP PUSH1 0x40 MLOAD PUSH3 0xAB6 CODESIZE SUB DUP1 PUSH3 0xAB6 DUP4 CODECOPY DUP2 DUP2 ADD PUSH1 0x40 MSTORE PUSH3 0x37 SWAP2 SWAP1 DUP2 ADD SWAP1 PUSH3 0x276 JUMP JUMPDEST PUSH1 0x0 DUP1 PUSH1 0x0 SWAP1 POP JUMPDEST DUP5 MLOAD DUP2 LT ISZERO PUSH3 0xD7 JUMPI PUSH1 0x0 DUP6 DUP3 DUP2 MLOAD DUP2 LT PUSH3 0x58 JUMPI INVALID JUMPDEST PUSH1 0x20 MUL PUSH1 0x20 ADD ADD MLOAD SWAP1 POP PUSH1 0x0 DUP6 DUP4 DUP2 MLOAD DUP2 LT PUSH3 0x71 JUMPI INVALID JUMPDEST PUSH1 0x20 MUL PUSH1 0x20 ADD ADD MLOAD SWAP1 POP DUP1 DUP5 ADD SWAP4 POP DUP1 PUSH1 0x3 PUSH1 0x0 DUP5 PUSH20 0xFFFFFFFFFFFFFFFFFFFFFFFFFFFFFFFFFFFFFFFF AND PUSH20 0xFFFFFFFFFFFFFFFFFFFFFFFFFFFFFFFFFFFFFFFF AND DUP2 MSTORE PUSH1 0x20 ADD SWAP1 DUP2 MSTORE PUSH1 0x20 ADD PUSH1 0x0 KECCAK256 PUSH1 0x0 ADD DUP2 SWAP1 SSTORE POP POP POP DUP1 DUP1 PUSH1 0x1 ADD SWAP2 POP POP PUSH3 0x3F JUMP JUMPDEST POP DUP2 DUP2 EQ PUSH3 0x11D JUMPI PUSH1 0x40 MLOAD PUSH32 0x8C379A000000000000000000000000000000000000000000000000000000000 DUP2 MSTORE PUSH1 0x4 ADD PUSH3 0x114 SWAP1 PUSH3 0x38C JUMP JUMPDEST PUSH1 0x40 MLOAD DUP1 SWAP2 SUB SWAP1 REVERT JUMPDEST DUP2 PUSH1 0x0 DUP2 SWAP1 SSTORE POP POP POP POP POP PUSH3 0x4B1 JUMP JUMPDEST PUSH1 0x0 DUP2 MLOAD SWAP1 POP PUSH3 0x13F DUP2 PUSH3 0x47D JUMP JUMPDEST SWAP3 SWAP2 POP POP JUMP JUMPDEST PUSH1 0x0 DUP3 PUSH1 0x1F DUP4 ADD SLT PUSH3 0x157 JUMPI PUSH1 0x0 DUP1 REVERT JUMPDEST DUP2 MLOAD PUSH3 0x16E PUSH3 0x168 DUP3 PUSH3 0x3DC JUMP JUMPDEST PUSH3 0x3AE JUMP JUMPDEST SWAP2 POP DUP2 DUP2 DUP4 MSTORE PUSH1 0x20 DUP5 ADD SWAP4 POP PUSH1 0x20 DUP2 ADD SWAP1 POP DUP4 DUP6 PUSH1 0x20 DUP5 MUL DUP3 ADD GT ISZERO PUSH3 0x194 JUMPI PUSH1 0x0 DUP1 REVERT JUMPDEST PUSH1 0x0 JUMPDEST DUP4 DUP2 LT ISZERO PUSH3 0x1C8 JUMPI DUP2 PUSH3 0x1AD DUP9 DUP3 PUSH3 0x12E JUMP JUMPDEST DUP5 MSTORE PUSH1 0x20 DUP5 ADD SWAP4 POP PUSH1 0x20 DUP4 ADD SWAP3 POP POP PUSH1 0x1 DUP2 ADD SWAP1 POP PUSH3 0x197 JUMP JUMPDEST POP POP POP POP SWAP3 SWAP2 POP POP JUMP JUMPDEST PUSH1 0x0 DUP3 PUSH1 0x1F DUP4 ADD SLT PUSH3 0x1E4 JUMPI PUSH1 0x0 DUP1 REVERT JUMPDEST DUP2 MLOAD PUSH3 0x1FB PUSH3 0x1F5 DUP3 PUSH3 0x405 JUMP JUMPDEST PUSH3 0x3AE JUMP JUMPDEST SWAP2 POP DUP2 DUP2 DUP4 MSTORE PUSH1 0x20 DUP5 ADD SWAP4 POP PUSH1 0x20 DUP2 ADD SWAP1 POP DUP4 DUP6 PUSH1 0x20 DUP5 MUL DUP3 ADD GT ISZERO PUSH3 0x221 JUMPI PUSH1 0x0 DUP1 REVERT JUMPDEST PUSH1 0x0 JUMPDEST DUP4 DUP2 LT ISZERO PUSH3 0x255 JUMPI DUP2 PUSH3 0x23A DUP9 DUP3 PUSH3 0x25F JUMP JUMPDEST DUP5 MSTORE PUSH1 0x20 DUP5 ADD SWAP4 POP PUSH1 0x20 DUP4 ADD SWAP3 POP POP PUSH1 0x1 DUP2 ADD SWAP1 POP PUSH3 0x224 JUMP JUMPDEST POP POP POP POP SWAP3 SWAP2 POP POP JUMP JUMPDEST PUSH1 0x0 DUP2 MLOAD SWAP1 POP PUSH3 0x270 DUP2 PUSH3 0x497 JUMP JUMPDEST SWAP3 SWAP2 POP POP JUMP JUMPDEST PUSH1 0x0 DUP1 PUSH1 0x0 PUSH1 0x60 DUP5 DUP7 SUB SLT ISZERO PUSH3 0x28C JUMPI PUSH1 0x0 DUP1 REVERT JUMPDEST PUSH1 0x0 DUP5 ADD MLOAD PUSH8 0xFFFFFFFFFFFFFFFF DUP2 GT ISZERO PUSH3 0x2A7 JUMPI PUSH1 0x0 DUP1 REVERT JUMPDEST PUSH3 0x2B5 DUP7 DUP3 DUP8 ADD PUSH3 0x145 JUMP JUMPDEST SWAP4 POP POP PUSH1 0x20 DUP5 ADD MLOAD PUSH8 0xFFFFFFFFFFFFFFFF DUP2 GT ISZERO PUSH3 0x2D3 JUMPI PUSH1 0x0 DUP1 REVERT JUMPDEST PUSH3 0x2E1 DUP7 DUP3 DUP8 ADD PUSH3 0x1D2 JUMP JUMPDEST SWAP3 POP POP PUSH1 0x40 PUSH3 0x2F4 DUP7 DUP3 DUP8 ADD PUSH3 0x25F JUMP JUMPDEST SWAP2 POP POP SWAP3 POP SWAP3 POP SWAP3 JUMP JUMPDEST PUSH1 0x0 PUSH3 0x30D PUSH1 0x4C DUP4 PUSH3 0x42E JUMP JUMPDEST SWAP2 POP PUSH32 0x636F6E7374727563746F723A3A46756E64696E67204572726F722C20746F7461 PUSH1 0x0 DUP4 ADD MSTORE PUSH32 0x6C2066756E64696E67206E6F7420657175616C20746F2073756D206F66207461 PUSH1 0x20 DUP4 ADD MSTORE PUSH32 0x726765742066756E64696E670000000000000000000000000000000000000000 PUSH1 0x40 DUP4 ADD MSTORE PUSH1 0x60 DUP3 ADD SWAP1 POP SWAP2 SWAP1 POP JUMP JUMPDEST PUSH1 0x0 PUSH1 0x20 DUP3 ADD SWAP1 POP DUP2 DUP2 SUB PUSH1 0x0 DUP4 ADD MSTORE PUSH3 0x3A7 DUP2 PUSH3 0x2FE JUMP JUMPDEST SWAP1 POP SWAP2 SWAP1 POP JUMP JUMPDEST PUSH1 0x0 PUSH1 0x40 MLOAD SWAP1 POP DUP2 DUP2 ADD DUP2 DUP2 LT PUSH8 0xFFFFFFFFFFFFFFFF DUP3 GT OR ISZERO PUSH3 0x3D2 JUMPI PUSH1 0x0 DUP1 REVERT JUMPDEST DUP1 PUSH1 0x40 MSTORE POP SWAP2 SWAP1 POP JUMP JUMPDEST PUSH1 0x0 PUSH8 0xFFFFFFFFFFFFFFFF DUP3 GT ISZERO PUSH3 0x3F4 JUMPI PUSH1 0x0 DUP1 REVERT JUMPDEST PUSH1 0x20 DUP3 MUL SWAP1 POP PUSH1 0x20 DUP2 ADD SWAP1 POP SWAP2 SWAP1 POP JUMP JUMPDEST PUSH1 0x0 PUSH8 0xFFFFFFFFFFFFFFFF DUP3 GT ISZERO PUSH3 0x41D JUMPI PUSH1 0x0 DUP1 REVERT JUMPDEST PUSH1 0x20 DUP3 MUL SWAP1 POP PUSH1 0x20 DUP2 ADD SWAP1 POP SWAP2 SWAP1 POP JUMP JUMPDEST PUSH1 0x0 DUP3 DUP3 MSTORE PUSH1 0x20 DUP3 ADD SWAP1 POP SWAP3 SWAP2 POP POP JUMP JUMPDEST PUSH1 0x0 PUSH3 0x44C DUP3 PUSH3 0x453 JUMP JUMPDEST SWAP1 POP SWAP2 SWAP1 POP JUMP JUMPDEST PUSH1 0x0 PUSH20 0xFFFFFFFFFFFFFFFFFFFFFFFFFFFFFFFFFFFFFFFF DUP3 AND SWAP1 POP SWAP2 SWAP1 POP JUMP JUMPDEST PUSH1 0x0 DUP2 SWAP1 POP SWAP2 SWAP1 POP JUMP JUMPDEST PUSH3 0x488 DUP2 PUSH3 0x43F JUMP JUMPDEST DUP2 EQ PUSH3 0x494 JUMPI PUSH1 0x0 DUP1 REVERT JUMPDEST POP JUMP JUMPDEST PUSH3 0x4A2 DUP2 PUSH3 0x473 JUMP JUMPDEST DUP2 EQ PUSH3 0x4AE JUMPI PUSH1 0x0 DUP1 REVERT JUMPDEST POP JUMP JUMPDEST PUSH2 0x5F5 DUP1 PUSH3 0x4C1 PUSH1 0x0 CODECOPY PUSH1 0x0 RETURN INVALID PUSH1 0x80 PUSH1 0x40 MSTORE CALLVALUE DUP1 ISZERO PUSH2 0x10 JUMPI PUSH1 0x0 DUP1 REVERT JUMPDEST POP PUSH1 0x4 CALLDATASIZE LT PUSH2 0xA5 JUMPI PUSH1 0x0 CALLDATALOAD PUSH29 0x100000000000000000000000000000000000000000000000000000000 SWAP1 DIV DUP1 PUSH4 0x589596B7 GT PUSH2 0x78 JUMPI DUP1 PUSH4 0x589596B7 EQ PUSH2 0x122 JUMPI DUP1 PUSH4 0xC267771C EQ PUSH2 0x153 JUMPI DUP1 PUSH4 0xCA0CDEA8 EQ PUSH2 0x183 JUMPI DUP1 PUSH4 0xD0CB3CD1 EQ PUSH2 0x1B4 JUMPI PUSH2 0xA5 JUMP JUMPDEST DUP1 PUSH4 0x1541FE3 EQ PUSH2 0xAA JUMPI DUP1 PUSH4 0x504CA05 EQ PUSH2 0xC8 JUMPI DUP1 PUSH4 0x100ACA47 EQ PUSH2 0xE6 JUMPI DUP1 PUSH4 0x454F7B8F EQ PUSH2 0x104 JUMPI JUMPDEST PUSH1 0x0 DUP1 REVERT JUMPDEST PUSH2 0xB2 PUSH2 0x1D2 JUMP JUMPDEST PUSH1 0x40 MLOAD PUSH2 0xBF SWAP2 SWAP1 PUSH2 0x477 JUMP JUMPDEST PUSH1 0x40 MLOAD DUP1 SWAP2 SUB SWAP1 RETURN JUMPDEST PUSH2 0xD0 PUSH2 0x1D8 JUMP JUMPDEST PUSH1 0x40 MLOAD PUSH2 0xDD SWAP2 SWAP1 PUSH2 0x477 JUMP JUMPDEST PUSH1 0x40 MLOAD DUP1 SWAP2 SUB SWAP1 RETURN JUMPDEST PUSH2 0xEE PUSH2 0x1F6 JUMP JUMPDEST PUSH1 0x40 MLOAD PUSH2 0xFB SWAP2 SWAP1 PUSH2 0x477 JUMP JUMPDEST PUSH1 0x40 MLOAD DUP1 SWAP2 SUB SWAP1 RETURN JUMPDEST PUSH2 0x10C PUSH2 0x1FC JUMP JUMPDEST PUSH1 0x40 MLOAD PUSH2 0x119 SWAP2 SWAP1 PUSH2 0x477 JUMP JUMPDEST PUSH1 0x40 MLOAD DUP1 SWAP2 SUB SWAP1 RETURN JUMPDEST PUSH2 0x13C PUSH1 0x4 DUP1 CALLDATASIZE SUB PUSH2 0x137 SWAP2 SWAP1 DUP2 ADD SWAP1 PUSH2 0x3BB JUMP JUMPDEST PUSH2 0x202 JUMP JUMPDEST PUSH1 0x40 MLOAD PUSH2 0x14A SWAP3 SWAP2 SWAP1 PUSH2 0x492 JUMP JUMPDEST PUSH1 0x40 MLOAD DUP1 SWAP2 SUB SWAP1 RETURN JUMPDEST PUSH2 0x16D PUSH1 0x4 DUP1 CALLDATASIZE SUB PUSH2 0x168 SWAP2 SWAP1 DUP2 ADD SWAP1 PUSH2 0x3E4 JUMP JUMPDEST PUSH2 0x226 JUMP JUMPDEST PUSH1 0x40 MLOAD PUSH2 0x17A SWAP2 SWAP1 PUSH2 0x477 JUMP JUMPDEST PUSH1 0x40 MLOAD DUP1 SWAP2 SUB SWAP1 RETURN JUMPDEST PUSH2 0x19D PUSH1 0x4 DUP1 CALLDATASIZE SUB PUSH2 0x198 SWAP2 SWAP1 DUP2 ADD SWAP1 PUSH2 0x3BB JUMP JUMPDEST PUSH2 0x24A JUMP JUMPDEST PUSH1 0x40 MLOAD PUSH2 0x1AB SWAP3 SWAP2 SWAP1 PUSH2 0x492 JUMP JUMPDEST PUSH1 0x40 MLOAD DUP1 SWAP2 SUB SWAP1 RETURN JUMPDEST PUSH2 0x1BC PUSH2 0x26E JUMP JUMPDEST PUSH1 0x40 MLOAD PUSH2 0x1C9 SWAP2 SWAP1 PUSH2 0x477 JUMP JUMPDEST PUSH1 0x40 MLOAD DUP1 SWAP2 SUB SWAP1 RETURN JUMPDEST PUSH1 0x1 SLOAD DUP2 JUMP JUMPDEST PUSH1 0x0 PUSH2 0x1F1 PUSH1 0x1 SLOAD PUSH1 0x0 SLOAD PUSH2 0x2A0 SWAP1 SWAP2 SWAP1 PUSH4 0xFFFFFFFF AND JUMP JUMPDEST SWAP1 POP SWAP1 JUMP JUMPDEST PUSH1 0x0 SLOAD DUP2 JUMP JUMPDEST PUSH1 0x2 SLOAD DUP2 JUMP JUMPDEST PUSH1 0x3 PUSH1 0x20 MSTORE DUP1 PUSH1 0x0 MSTORE PUSH1 0x40 PUSH1 0x0 KECCAK256 PUSH1 0x0 SWAP2 POP SWAP1 POP DUP1 PUSH1 0x0 ADD SLOAD SWAP1 DUP1 PUSH1 0x1 ADD SLOAD SWAP1 POP DUP3 JUMP JUMPDEST PUSH1 0x0 PUSH2 0x243 DUP3 PUSH1 0x20 ADD MLOAD DUP4 PUSH1 0x0 ADD MLOAD PUSH2 0x2A0 SWAP1 SWAP2 SWAP1 PUSH4 0xFFFFFFFF AND JUMP JUMPDEST SWAP1 POP SWAP2 SWAP1 POP JUMP JUMPDEST PUSH1 0x4 PUSH1 0x20 MSTORE DUP1 PUSH1 0x0 MSTORE PUSH1 0x40 PUSH1 0x0 KECCAK256 PUSH1 0x0 SWAP2 POP SWAP1 POP DUP1 PUSH1 0x0 ADD SLOAD SWAP1 DUP1 PUSH1 0x1 ADD SLOAD SWAP1 POP DUP3 JUMP JUMPDEST PUSH1 0x0 PUSH2 0x29B PUSH1 0x2 SLOAD PUSH2 0x28D PUSH1 0x1 SLOAD PUSH1 0x0 SLOAD PUSH2 0x2A0 SWAP1 SWAP2 SWAP1 PUSH4 0xFFFFFFFF AND JUMP JUMPDEST PUSH2 0x2A0 SWAP1 SWAP2 SWAP1 PUSH4 0xFFFFFFFF AND JUMP JUMPDEST SWAP1 POP SWAP1 JUMP JUMPDEST PUSH1 0x0 PUSH2 0x2E2 DUP4 DUP4 PUSH1 0x40 MLOAD DUP1 PUSH1 0x40 ADD PUSH1 0x40 MSTORE DUP1 PUSH1 0x1E DUP2 MSTORE PUSH1 0x20 ADD PUSH32 0x536166654D6174683A207375627472616374696F6E206F766572666C6F770000 DUP2 MSTORE POP PUSH2 0x2EA JUMP JUMPDEST SWAP1 POP SWAP3 SWAP2 POP POP JUMP JUMPDEST PUSH1 0x0 DUP4 DUP4 GT ISZERO DUP3 SWAP1 PUSH2 0x332 JUMPI PUSH1 0x40 MLOAD PUSH32 0x8C379A000000000000000000000000000000000000000000000000000000000 DUP2 MSTORE PUSH1 0x4 ADD PUSH2 0x329 SWAP2 SWAP1 PUSH2 0x455 JUMP JUMPDEST PUSH1 0x40 MLOAD DUP1 SWAP2 SUB SWAP1 REVERT JUMPDEST POP PUSH1 0x0 DUP4 DUP6 SUB SWAP1 POP DUP1 SWAP2 POP POP SWAP4 SWAP3 POP POP POP JUMP JUMPDEST PUSH1 0x0 DUP2 CALLDATALOAD SWAP1 POP PUSH2 0x354 DUP2 PUSH2 0x584 JUMP JUMPDEST SWAP3 SWAP2 POP POP JUMP JUMPDEST PUSH1 0x0 PUSH1 0x40 DUP3 DUP5 SUB SLT ISZERO PUSH2 0x36C JUMPI PUSH1 0x0 DUP1 REVERT JUMPDEST PUSH2 0x376 PUSH1 0x40 PUSH2 0x4BB JUMP JUMPDEST SWAP1 POP PUSH1 0x0 PUSH2 0x386 DUP5 DUP3 DUP6 ADD PUSH2 0x3A6 JUMP JUMPDEST PUSH1 0x0 DUP4 ADD MSTORE POP PUSH1 0x20 PUSH2 0x39A DUP5 DUP3 DUP6 ADD PUSH2 0x3A6 JUMP JUMPDEST PUSH1 0x20 DUP4 ADD MSTORE POP SWAP3 SWAP2 POP POP JUMP JUMPDEST PUSH1 0x0 DUP2 CALLDATALOAD SWAP1 POP PUSH2 0x3B5 DUP2 PUSH2 0x59B JUMP JUMPDEST SWAP3 SWAP2 POP POP JUMP JUMPDEST PUSH1 0x0 PUSH1 0x20 DUP3 DUP5 SUB SLT ISZERO PUSH2 0x3CD JUMPI PUSH1 0x0 DUP1 REVERT JUMPDEST PUSH1 0x0 PUSH2 0x3DB DUP5 DUP3 DUP6 ADD PUSH2 0x345 JUMP JUMPDEST SWAP2 POP POP SWAP3 SWAP2 POP POP JUMP JUMPDEST PUSH1 0x0 PUSH1 0x40 DUP3 DUP5 SUB SLT ISZERO PUSH2 0x3F6 JUMPI PUSH1 0x0 DUP1 REVERT JUMPDEST PUSH1 0x0 PUSH2 0x404 DUP5 DUP3 DUP6 ADD PUSH2 0x35A JUMP JUMPDEST SWAP2 POP POP SWAP3 SWAP2 POP POP JUMP JUMPDEST PUSH1 0x0 PUSH2 0x418 DUP3 PUSH2 0x4E8 JUMP JUMPDEST PUSH2 0x422 DUP2 DUP6 PUSH2 0x4F3 JUMP JUMPDEST SWAP4 POP PUSH2 0x432 DUP2 DUP6 PUSH1 0x20 DUP7 ADD PUSH2 0x540 JUMP JUMPDEST PUSH2 0x43B DUP2 PUSH2 0x573 JUMP JUMPDEST DUP5 ADD SWAP2 POP POP SWAP3 SWAP2 POP POP JUMP JUMPDEST PUSH2 0x44F DUP2 PUSH2 0x536 JUMP JUMPDEST DUP3 MSTORE POP POP JUMP JUMPDEST PUSH1 0x0 PUSH1 0x20 DUP3 ADD SWAP1 POP DUP2 DUP2 SUB PUSH1 0x0 DUP4 ADD MSTORE PUSH2 0x46F DUP2 DUP5 PUSH2 0x40D JUMP JUMPDEST SWAP1 POP SWAP3 SWAP2 POP POP JUMP JUMPDEST PUSH1 0x0 PUSH1 0x20 DUP3 ADD SWAP1 POP PUSH2 0x48C PUSH1 0x0 DUP4 ADD DUP5 PUSH2 0x446 JUMP JUMPDEST SWAP3 SWAP2 POP POP JUMP JUMPDEST PUSH1 0x0 PUSH1 0x40 DUP3 ADD SWAP1 POP PUSH2 0x4A7 PUSH1 0x0 DUP4 ADD DUP6 PUSH2 0x446 JUMP JUMPDEST PUSH2 0x4B4 PUSH1 0x20 DUP4 ADD DUP5 PUSH2 0x446 JUMP JUMPDEST SWAP4 SWAP3 POP POP POP JUMP JUMPDEST PUSH1 0x0 PUSH1 0x40 MLOAD SWAP1 POP DUP2 DUP2 ADD DUP2 DUP2 LT PUSH8 0xFFFFFFFFFFFFFFFF DUP3 GT OR ISZERO PUSH2 0x4DE JUMPI PUSH1 0x0 DUP1 REVERT JUMPDEST DUP1 PUSH1 0x40 MSTORE POP SWAP2 SWAP1 POP JUMP JUMPDEST PUSH1 0x0 DUP2 MLOAD SWAP1 POP SWAP2 SWAP1 POP JUMP JUMPDEST PUSH1 0x0 DUP3 DUP3 MSTORE PUSH1 0x20 DUP3 ADD SWAP1 POP SWAP3 SWAP2 POP POP JUMP JUMPDEST PUSH1 0x0 PUSH2 0x50F DUP3 PUSH2 0x516 JUMP JUMPDEST SWAP1 POP SWAP2 SWAP1 POP JUMP JUMPDEST PUSH1 0x0 PUSH20 0xFFFFFFFFFFFFFFFFFFFFFFFFFFFFFFFFFFFFFFFF DUP3 AND SWAP1 POP SWAP2 SWAP1 POP JUMP JUMPDEST PUSH1 0x0 DUP2 SWAP1 POP SWAP2 SWAP1 POP JUMP JUMPDEST PUSH1 0x0 JUMPDEST DUP4 DUP2 LT ISZERO PUSH2 0x55E JUMPI DUP1 DUP3 ADD MLOAD DUP2 DUP5 ADD MSTORE PUSH1 0x20 DUP2 ADD SWAP1 POP PUSH2 0x543 JUMP JUMPDEST DUP4 DUP2 GT ISZERO PUSH2 0x56D JUMPI PUSH1 0x0 DUP5 DUP5 ADD MSTORE JUMPDEST POP POP POP POP JUMP JUMPDEST PUSH1 0x0 PUSH1 0x1F NOT PUSH1 0x1F DUP4 ADD AND SWAP1 POP SWAP2 SWAP1 POP JUMP JUMPDEST PUSH2 0x58D DUP2 PUSH2 0x504 JUMP JUMPDEST DUP2 EQ PUSH2 0x598 JUMPI PUSH1 0x0 DUP1 REVERT JUMPDEST POP JUMP JUMPDEST PUSH2 0x5A4 DUP2 PUSH2 0x536 JUMP JUMPDEST DUP2 EQ PUSH2 0x5AF JUMPI PUSH1 0x0 DUP1 REVERT JUMPDEST POP JUMP INVALID LOG3 PUSH6 0x627A7A723058 KECCAK256 LOG4 0x47 0xf SWAP10 0xdc 0x27 SLOAD PUSH31 0x449EB4CBF9CCDA5A5F458DD55565A765A8A91BC3149F70D36C657870657269 PUSH14 0x656E74616CF564736F6C63430005 EXP STOP BLOCKHASH "
    }
  },
  "interface": [
    {
      "constant": true,
      "inputs": [],
      "name": "totalRefund",
      "outputs": [
        {
          "name": "",
          "type": "uint256"
        }
      ],
      "payable": false,
      "stateMutability": "view",
      "type": "function"
    },
    {
      "constant": true,
      "inputs": [],
      "name": "differenceOfFundAndRefund",
      "outputs": [
        {
          "name": "",
          "type": "uint256"
        }
      ],
      "payable": false,
      "stateMutability": "view",
      "type": "function"
    },
    {
      "constant": true,
      "inputs": [],
      "name": "totalFund",
      "outputs": [
        {
          "name": "",
          "type": "uint256"
        }
      ],
      "payable": false,
      "stateMutability": "view",
      "type": "function"
    },
    {
      "constant": true,
      "inputs": [],
      "name": "totalPayout",
      "outputs": [
        {
          "name": "",
          "type": "uint256"
        }
      ],
      "payable": false,
      "stateMutability": "view",
      "type": "function"
    },
    {
      "constant": true,
      "inputs": [
        {
          "name": "",
          "type": "address"
        }
      ],
      "name": "grantees",
      "outputs": [
        {
          "name": "targetFunding",
          "type": "uint256"
        },
        {
          "name": "payout",
          "type": "uint256"
        }
      ],
      "payable": false,
      "stateMutability": "view",
      "type": "function"
    },
    {
      "constant": true,
      "inputs": [
        {
          "components": [
            {
              "name": "fund",
              "type": "uint256"
            },
            {
              "name": "refund",
              "type": "uint256"
            }
          ],
          "name": "_donor",
          "type": "tuple"
        }
      ],
      "name": "actualFundingByDonor",
      "outputs": [
        {
          "name": "",
          "type": "uint256"
        }
      ],
      "payable": false,
      "stateMutability": "pure",
      "type": "function"
    },
    {
      "constant": true,
      "inputs": [
        {
          "name": "",
          "type": "address"
        }
      ],
      "name": "donors",
      "outputs": [
        {
          "name": "fund",
          "type": "uint256"
        },
        {
          "name": "refund",
          "type": "uint256"
        }
      ],
      "payable": false,
      "stateMutability": "view",
      "type": "function"
    },
    {
      "constant": true,
      "inputs": [],
      "name": "availableFund",
      "outputs": [
        {
          "name": "",
          "type": "uint256"
        }
      ],
      "payable": false,
      "stateMutability": "view",
      "type": "function"
    },
    {
      "inputs": [
        {
          "name": "_granteesAddress",
          "type": "address[]"
        },
        {
          "name": "_targetFundingForGrantee",
          "type": "uint256[]"
        },
        {
          "name": "_totalFund",
          "type": "uint256"
        }
      ],
      "payable": false,
      "stateMutability": "nonpayable",
      "type": "constructor"
    }
  ]
}